{
  "contractName": "IdentifyMachine",
  "abi": [
    {
      "constant": true,
      "inputs": [
        {
          "name": "",
          "type": "bytes32"
        }
      ],
      "name": "ignites",
      "outputs": [
        {
          "name": "",
          "type": "uint8"
        }
      ],
      "payable": false,
      "stateMutability": "view",
      "type": "function"
    },
    {
      "constant": true,
      "inputs": [
        {
          "name": "",
          "type": "uint256"
        }
      ],
      "name": "machineList",
      "outputs": [
        {
          "name": "",
          "type": "bytes32"
        }
      ],
      "payable": false,
      "stateMutability": "view",
      "type": "function"
    },
    {
      "constant": false,
      "inputs": [
        {
          "name": "machine",
          "type": "bytes32"
        }
      ],
      "name": "totalIgnitionsFor",
      "outputs": [
        {
          "name": "",
          "type": "uint8"
        }
      ],
      "payable": false,
      "stateMutability": "nonpayable",
      "type": "function"
    },
    {
      "constant": false,
      "inputs": [
        {
          "name": "machine",
          "type": "bytes32"
        }
      ],
      "name": "addMachine",
      "outputs": [],
      "payable": false,
      "stateMutability": "nonpayable",
      "type": "function"
    },
    {
      "constant": false,
      "inputs": [
        {
          "name": "machine",
          "type": "bytes32"
        }
      ],
      "name": "igniteMachine",
      "outputs": [],
      "payable": false,
      "stateMutability": "nonpayable",
      "type": "function"
    },
    {
      "constant": false,
      "inputs": [
        {
          "name": "machine",
          "type": "bytes32"
        }
      ],
      "name": "machineListed",
      "outputs": [
        {
          "name": "",
          "type": "bool"
        }
      ],
      "payable": false,
      "stateMutability": "nonpayable",
      "type": "function"
    },
    {
      "inputs": [
        {
          "name": "machines",
          "type": "bytes32[]"
        }
      ],
      "payable": false,
      "stateMutability": "nonpayable",
      "type": "constructor"
    }
  ],
  "bytecode": "0x6060604052341561000f57600080fd5b6040516104b43803806104b4833981016040528080518201919050508060019080519060200190610041929190610048565b50506100c0565b82805482825590600052602060002090810192821561008a579160200282015b82811115610089578251829060001916905591602001919060010190610068565b5b509050610097919061009b565b5090565b6100bd91905b808211156100b95760008160009055506001016100a1565b5090565b90565b6103e5806100cf6000396000f300606060405260043610610078576000357c0100000000000000000000000000000000000000000000000000000000900463ffffffff1680632cfbd2b01461007d5780633c9ab950146100be578063789dd26e146100fd578063cb4c61751461013e578063d5bfebe814610165578063fb242aef1461018c575b600080fd5b341561008857600080fd5b6100a26004808035600019169060200190919050506101cb565b604051808260ff1660ff16815260200191505060405180910390f35b34156100c957600080fd5b6100df60048080359060200190919050506101eb565b60405180826000191660001916815260200191505060405180910390f35b341561010857600080fd5b61012260048080356000191690602001909190505061020f565b604051808260ff1660ff16815260200191505060405180910390f35b341561014957600080fd5b610163600480803560001916906020019091905050610259565b005b341561017057600080fd5b61018a6004808035600019169060200190919050506102a5565b005b341561019757600080fd5b6101b1600480803560001916906020019091905050610308565b604051808215151515815260200191505060405180910390f35b60006020528060005260406000206000915054906101000a900460ff1681565b6001818154811015156101fa57fe5b90600052602060002090016000915090505481565b600080151561021d83610308565b1515141561022a57600080fd5b600080836000191660001916815260200190815260200160002060009054906101000a900460ff169050919050565b6001151561026682610308565b1515141561027357600080fd5b600180548060010182816102879190610368565b91600052602060002090016000839091909150906000191690555050565b600015156102b282610308565b151514156102bf57600080fd5b6001600080836000191660001916815260200190815260200160002060008282829054906101000a900460ff160192506101000a81548160ff021916908360ff16021790555050565b600080600090505b60018054905081101561035d57826000191660018281548110151561033157fe5b9060005260206000209001546000191614156103505760019150610362565b8080600101915050610310565b600091505b50919050565b81548183558181151161038f5781836000526020600020918201910161038e9190610394565b5b505050565b6103b691905b808211156103b257600081600090555060010161039a565b5090565b905600a165627a7a72305820edb77a4d313337ce7259f67154959bdc7d728a6250826aaa068680f4d0cb7d8b0029",
  "source": "pragma solidity ^0.4.11;\n// We have to specify what version of compiler this code will compile with\n\ncontract IdentifyMachine {\n  /* mapping field below is equivalent to an associative array or hash.\n  The key of the mapping is machine name stored as type bytes32 and value is\n  an unsigned integer to store the ignition count\n  */\n  \n  mapping (bytes32 => uint8) public ignites;\n  \n  /* Solidity doesn't let you pass in an array of strings in the constructor (yet).\n  We will use an array of bytes32 instead to store the list of machines\n  */\n  \n  bytes32[] public machineList;\n\n  /* This is the constructor which will be called once when you\n  deploy the contract to the blockchain. When we deploy the contract,\n  we will pass an array of machines\n  */\n  function IdentifyMachine(bytes32[] machines) {\n    machineList = machines;\n  }\n\n  function addMachine(bytes32 machine) {\n    if (machineListed(machine) == true) throw;\n    machineList.push(machine);\n  }\n\n  // This function returns the total ignitions a candidate has received so far\n  function totalIgnitionsFor(bytes32 machine) returns (uint8) {\n    if (machineListed(machine) == false) throw;\n    return ignites[machine];\n  }\n\n  // This function increments the vote count for the specified machine. This\n  // is turning the ignition\n  function igniteMachine(bytes32 machine) {\n    if (machineListed(machine) == false) throw;\n    ignites[machine] += 1;\n  }\n\n  function machineListed(bytes32 machine) returns (bool) {\n    for (uint i = 0; i < machineList.length; i++) {\n      if (machineList[i] == machine) {\n        return true;\n      }\n    }\n    return false;\n  }\n}\n",
  "sourcePath": "/Users/michalmikolajczyk/dev/blockchain-IoT-core/src/notary/contracts/IdentifyMachine.sol",
  "compiler": {
    "name": "solc",
    "version": "0.4.18+commit.9cf6e910.Emscripten.clang"
  },
  "schemaVersion": "1.0.1",
  "updatedAt": "2018-02-20T18:49:26.757Z"
}