{
  "contractName": "Machine",
  "abi": [
    {
      "constant": true,
      "inputs": [],
      "name": "rentalCount",
      "outputs": [
        {
          "name": "",
          "type": "uint256"
        }
      ],
      "payable": false,
      "stateMutability": "view",
      "type": "function"
    },
    {
      "constant": true,
      "inputs": [],
      "name": "model",
      "outputs": [
        {
          "name": "",
          "type": "string"
        }
      ],
      "payable": false,
      "stateMutability": "view",
      "type": "function"
    },
    {
      "constant": true,
      "inputs": [],
      "name": "rentalPrice",
      "outputs": [
        {
          "name": "",
          "type": "uint256"
        }
      ],
      "payable": false,
      "stateMutability": "view",
      "type": "function"
    },
    {
      "constant": true,
      "inputs": [],
      "name": "renter",
      "outputs": [
        {
          "name": "",
          "type": "address"
        }
      ],
      "payable": false,
      "stateMutability": "view",
      "type": "function"
    },
    {
      "constant": true,
      "inputs": [],
      "name": "owner",
      "outputs": [
        {
          "name": "",
          "type": "address"
        }
      ],
      "payable": false,
      "stateMutability": "view",
      "type": "function"
    },
    {
      "constant": true,
      "inputs": [],
      "name": "vin",
      "outputs": [
        {
          "name": "",
          "type": "bytes32"
        }
      ],
      "payable": false,
      "stateMutability": "view",
      "type": "function"
    },
    {
      "constant": true,
      "inputs": [],
      "name": "make",
      "outputs": [
        {
          "name": "",
          "type": "string"
        }
      ],
      "payable": false,
      "stateMutability": "view",
      "type": "function"
    },
    {
      "constant": true,
      "inputs": [],
      "name": "token",
      "outputs": [
        {
          "name": "",
          "type": "address"
        }
      ],
      "payable": false,
      "stateMutability": "view",
      "type": "function"
    },
    {
      "constant": true,
      "inputs": [],
      "name": "pendingRenter",
      "outputs": [
        {
          "name": "",
          "type": "address"
        }
      ],
      "payable": false,
      "stateMutability": "view",
      "type": "function"
    },
    {
      "inputs": [
        {
          "name": "_model",
          "type": "string"
        },
        {
          "name": "_make",
          "type": "string"
        },
        {
          "name": "_vin",
          "type": "bytes32"
        }
      ],
      "payable": false,
      "stateMutability": "nonpayable",
      "type": "constructor"
    },
    {
      "anonymous": false,
      "inputs": [
        {
          "indexed": true,
          "name": "_machine",
          "type": "address"
        },
        {
          "indexed": true,
          "name": "_owner",
          "type": "address"
        },
        {
          "indexed": true,
          "name": "_renter",
          "type": "address"
        },
        {
          "indexed": false,
          "name": "startTime",
          "type": "uint256"
        },
        {
          "indexed": false,
          "name": "endTime",
          "type": "uint256"
        },
        {
          "indexed": false,
          "name": "_rentalPrice",
          "type": "uint256"
        }
      ],
      "name": "MachineRental",
      "type": "event"
    },
    {
      "anonymous": false,
      "inputs": [
        {
          "indexed": true,
          "name": "_machine",
          "type": "address"
        },
        {
          "indexed": true,
          "name": "_renter",
          "type": "address"
        },
        {
          "indexed": false,
          "name": "claimedTime",
          "type": "uint256"
        }
      ],
      "name": "RentalClaimed",
      "type": "event"
    },
    {
      "anonymous": false,
      "inputs": [
        {
          "indexed": true,
          "name": "_machine",
          "type": "address"
        },
        {
          "indexed": true,
          "name": "_renter",
          "type": "address"
        },
        {
          "indexed": false,
          "name": "returnTime",
          "type": "uint256"
        }
      ],
      "name": "MachineReturned",
      "type": "event"
    },
    {
      "anonymous": false,
      "inputs": [
        {
          "indexed": true,
          "name": "_machine",
          "type": "address"
        },
        {
          "indexed": true,
          "name": "_owner",
          "type": "address"
        },
        {
          "indexed": false,
          "name": "claimedTime",
          "type": "uint256"
        }
      ],
      "name": "ReturnConfirmed",
      "type": "event"
    },
    {
      "constant": false,
      "inputs": [
        {
          "name": "_pendingRenter",
          "type": "address"
        },
        {
          "name": "startTime",
          "type": "uint256"
        },
        {
          "name": "endTime",
          "type": "uint256"
        },
        {
          "name": "price",
          "type": "uint256"
        }
      ],
      "name": "rentMachine",
      "outputs": [],
      "payable": false,
      "stateMutability": "nonpayable",
      "type": "function"
    },
    {
      "constant": false,
      "inputs": [
        {
          "name": "_token",
          "type": "address"
        }
      ],
      "name": "claimRental",
      "outputs": [],
      "payable": false,
      "stateMutability": "nonpayable",
      "type": "function"
    },
    {
      "constant": false,
      "inputs": [],
      "name": "returnMachine",
      "outputs": [],
      "payable": false,
      "stateMutability": "nonpayable",
      "type": "function"
    },
    {
      "constant": false,
      "inputs": [],
      "name": "confirmReturn",
      "outputs": [],
      "payable": false,
      "stateMutability": "nonpayable",
      "type": "function"
    }
  ],
  "bytecode": "0x6060604052341561000f57600080fd5b6040516200108c3803806200108c83398101604052808051820191906020018051820191906020018051906020019091905050336000806101000a81548173ffffffffffffffffffffffffffffffffffffffff021916908373ffffffffffffffffffffffffffffffffffffffff16021790555082600390805190602001906100989291906100cb565b5081600490805190602001906100af9291906100cb565b5080600581600019169055506000600781905550505050610170565b828054600181600116156101000203166002900490600052602060002090601f016020900481019282601f1061010c57805160ff191683800117855561013a565b8280016001018555821561013a579182015b8281111561013957825182559160200191906001019061011e565b5b509050610147919061014b565b5090565b61016d91905b80821115610169576000816000905550600101610151565b5090565b90565b610f0c80620001806000396000f3006060604052600436106100c5576000357c0100000000000000000000000000000000000000000000000000000000900463ffffffff1680630a294ab6146100ca5780630ad9d052146100f35780631c43cd04146101815780632e88ab0b146101aa57806332f8290c146101ff57806377fc9f6a146102145780637b33fa251461024d5780638da5cb5b14610262578063aca2d464146102b7578063c6dad082146102e8578063d967f75214610376578063fc0c546a146103ca578063ffa20fad1461041f575b600080fd5b34156100d557600080fd5b6100dd610474565b6040518082815260200191505060405180910390f35b34156100fe57600080fd5b61010661047a565b6040518080602001828103825283818151815260200191508051906020019080838360005b8381101561014657808201518184015260208101905061012b565b50505050905090810190601f1680156101735780820380516001836020036101000a031916815260200191505b509250505060405180910390f35b341561018c57600080fd5b610194610518565b6040518082815260200191505060405180910390f35b34156101b557600080fd5b6101bd61051e565b604051808273ffffffffffffffffffffffffffffffffffffffff1673ffffffffffffffffffffffffffffffffffffffff16815260200191505060405180910390f35b341561020a57600080fd5b610212610544565b005b341561021f57600080fd5b61024b600480803573ffffffffffffffffffffffffffffffffffffffff1690602001909190505061078d565b005b341561025857600080fd5b610260610a27565b005b341561026d57600080fd5b610275610b66565b604051808273ffffffffffffffffffffffffffffffffffffffff1673ffffffffffffffffffffffffffffffffffffffff16815260200191505060405180910390f35b34156102c257600080fd5b6102ca610b8b565b60405180826000191660001916815260200191505060405180910390f35b34156102f357600080fd5b6102fb610b91565b6040518080602001828103825283818151815260200191508051906020019080838360005b8381101561033b578082015181840152602081019050610320565b50505050905090810190601f1680156103685780820380516001836020036101000a031916815260200191505b509250505060405180910390f35b341561038157600080fd5b6103c8600480803573ffffffffffffffffffffffffffffffffffffffff16906020019091908035906020019091908035906020019091908035906020019091905050610c2f565b005b34156103d557600080fd5b6103dd610dc1565b604051808273ffffffffffffffffffffffffffffffffffffffff1673ffffffffffffffffffffffffffffffffffffffff16815260200191505060405180910390f35b341561042a57600080fd5b610432610de7565b604051808273ffffffffffffffffffffffffffffffffffffffff1673ffffffffffffffffffffffffffffffffffffffff16815260200191505060405180910390f35b60075481565b60038054600181600116156101000203166002900480601f0160208091040260200160405190810160405280929190818152602001828054600181600116156101000203166002900480156105105780601f106104e557610100808354040283529160200191610510565b820191906000526020600020905b8154815290600101906020018083116104f357829003601f168201915b505050505081565b60065481565b600260009054906101000a900473ffffffffffffffffffffffffffffffffffffffff1681565b6000600260009054906101000a900473ffffffffffffffffffffffffffffffffffffffff1673ffffffffffffffffffffffffffffffffffffffff163373ffffffffffffffffffffffffffffffffffffffff161415156105a257600080fd5b600860009054906101000a900473ffffffffffffffffffffffffffffffffffffffff1673ffffffffffffffffffffffffffffffffffffffff166370a08231306000604051602001526040518263ffffffff167c0100000000000000000000000000000000000000000000000000000000028152600401808273ffffffffffffffffffffffffffffffffffffffff1673ffffffffffffffffffffffffffffffffffffffff168152602001915050602060405180830381600087803b151561066757600080fd5b6102c65a03f1151561067857600080fd5b505050604051805190509050806006541115151561069557600080fd5b6107036000809054906101000a900473ffffffffffffffffffffffffffffffffffffffff1682600860009054906101000a900473ffffffffffffffffffffffffffffffffffffffff1673ffffffffffffffffffffffffffffffffffffffff16610e0d9092919063ffffffff16565b600260009054906101000a900473ffffffffffffffffffffffffffffffffffffffff1673ffffffffffffffffffffffffffffffffffffffff163073ffffffffffffffffffffffffffffffffffffffff167f79d88277d215c99d3f2e100d08eac35bb85faa2881f4f75e825ec5f635b3bdab426040518082815260200191505060405180910390a350565b600160009054906101000a900473ffffffffffffffffffffffffffffffffffffffff1673ffffffffffffffffffffffffffffffffffffffff163373ffffffffffffffffffffffffffffffffffffffff161415156107e957600080fd5b8073ffffffffffffffffffffffffffffffffffffffff166370a08231306000604051602001526040518263ffffffff167c0100000000000000000000000000000000000000000000000000000000028152600401808273ffffffffffffffffffffffffffffffffffffffff1673ffffffffffffffffffffffffffffffffffffffff168152602001915050602060405180830381600087803b151561088c57600080fd5b6102c65a03f1151561089d57600080fd5b50505060405180519050600654111515156108b757600080fd5b80600860006101000a81548173ffffffffffffffffffffffffffffffffffffffff021916908373ffffffffffffffffffffffffffffffffffffffff160217905550600160009054906101000a900473ffffffffffffffffffffffffffffffffffffffff16600260006101000a81548173ffffffffffffffffffffffffffffffffffffffff021916908373ffffffffffffffffffffffffffffffffffffffff1602179055506000600160006101000a81548173ffffffffffffffffffffffffffffffffffffffff021916908373ffffffffffffffffffffffffffffffffffffffff160217905550600260009054906101000a900473ffffffffffffffffffffffffffffffffffffffff1673ffffffffffffffffffffffffffffffffffffffff163073ffffffffffffffffffffffffffffffffffffffff167f4cbd49028dc7260f72696164c28b5c70255626609fa5e857e02e114e7ef8579d426040518082815260200191505060405180910390a350565b6000809054906101000a900473ffffffffffffffffffffffffffffffffffffffff1673ffffffffffffffffffffffffffffffffffffffff163373ffffffffffffffffffffffffffffffffffffffff16141515610a8257600080fd5b6000600260006101000a81548173ffffffffffffffffffffffffffffffffffffffff021916908373ffffffffffffffffffffffffffffffffffffffff16021790555060006006819055506007600081548092919060010191905055506000809054906101000a900473ffffffffffffffffffffffffffffffffffffffff1673ffffffffffffffffffffffffffffffffffffffff163073ffffffffffffffffffffffffffffffffffffffff167fed5554e5e3f4513393bedcdee6a6407afadd9cd87041fca85a7cb7cb7ad25482426040518082815260200191505060405180910390a3565b6000809054906101000a900473ffffffffffffffffffffffffffffffffffffffff1681565b60055481565b60048054600181600116156101000203166002900480601f016020809104026020016040519081016040528092919081815260200182805460018160011615610100020316600290048015610c275780601f10610bfc57610100808354040283529160200191610c27565b820191906000526020600020905b815481529060010190602001808311610c0a57829003601f168201915b505050505081565b6000809054906101000a900473ffffffffffffffffffffffffffffffffffffffff1673ffffffffffffffffffffffffffffffffffffffff163373ffffffffffffffffffffffffffffffffffffffff16141515610c8a57600080fd5b600073ffffffffffffffffffffffffffffffffffffffff168473ffffffffffffffffffffffffffffffffffffffff1614151515610cc657600080fd5b806006819055508373ffffffffffffffffffffffffffffffffffffffff166000809054906101000a900473ffffffffffffffffffffffffffffffffffffffff1673ffffffffffffffffffffffffffffffffffffffff163073ffffffffffffffffffffffffffffffffffffffff167fd211576039c1c18c9c7ad2fdfd79b420a752353d1c1bcc0ec83f6f24907e85d886868660405180848152602001838152602001828152602001935050505060405180910390a483600160006101000a81548173ffffffffffffffffffffffffffffffffffffffff021916908373ffffffffffffffffffffffffffffffffffffffff16021790555050505050565b600860009054906101000a900473ffffffffffffffffffffffffffffffffffffffff1681565b600160009054906101000a900473ffffffffffffffffffffffffffffffffffffffff1681565b8273ffffffffffffffffffffffffffffffffffffffff1663a9059cbb83836000604051602001526040518363ffffffff167c0100000000000000000000000000000000000000000000000000000000028152600401808373ffffffffffffffffffffffffffffffffffffffff1673ffffffffffffffffffffffffffffffffffffffff16815260200182815260200192505050602060405180830381600087803b1515610eb857600080fd5b6102c65a03f11515610ec957600080fd5b505050604051805190501515610edb57fe5b5050505600a165627a7a723058201c839154470fdd84407317e25df95455e3123346fbc03fb1b7ec3345fc6da13f0029",
  "source": "pragma solidity ^0.4.18;\nimport \"../node_modules/zeppelin-solidity/contracts/token/ERC20/ERC20Basic.sol\";\nimport \"../node_modules/zeppelin-solidity/contracts/token/ERC20/SafeERC20.sol\";\n\n/**\n * @title Ownable\n * @dev The Ownable contract has an owner address, and provides basic authorization control\n * functions, this simplifies the implementation of \"user permissions\".\n */\ncontract Machine {\n  using SafeERC20 for ERC20Basic;\n\n  address public owner;\n  address public pendingRenter;\n  address public renter;\n  string public model;\n  string public make;\n  bytes32 public vin;\n  uint256 public rentalPrice;\n  uint256 public rentalCount;\n    // ERC20 basic token contract being held\n  ERC20Basic public token;\n\n  event MachineRental(address indexed _machine, address indexed _owner, address indexed _renter, uint256 startTime, uint256 endTime, uint256 _rentalPrice);\n  event RentalClaimed(address indexed _machine, address indexed _renter, uint256 claimedTime);\n  event MachineReturned(address indexed _machine, address indexed _renter, uint256 returnTime);\n  event ReturnConfirmed(address indexed _machine, address indexed _owner, uint256 claimedTime);\n\n  /**\n   * @dev The MachineRepresentation constructor sets the original `owner` of the contract to the sender\n   * account. It also sets the model, make and VIN of the machine.\n   */\n  function Machine(string _model, string _make, bytes32 _vin) public {\n    owner = msg.sender;\n    model = _model;\n    make = _make;\n    vin = _vin;\n    rentalCount = 0;\n  }\n\n  /**\n   * @dev Throws if called by any account other than the owner.\n   */\n  modifier onlyOwner() {\n    require(msg.sender == owner);\n    _;\n  }\n\n  /**\n   * @dev Throws if called by any account other than the renter.\n   */\n  modifier onlyRenter() {\n    require(msg.sender == renter);\n    _;\n  }\n\n  /**\n   * @dev Throws if called by any account other than the pending renter (temporary role).\n   */\n  modifier onlyPendingRenter() {\n    require(msg.sender == pendingRenter);\n    _;\n  }\n\n  /**\n   * @dev Allows the owner to rent out the machine to the renter, and specify the start and end time\n   * and also the price for the rental\n   */\n  function rentMachine(address _pendingRenter, uint256 startTime, uint256 endTime, uint256 price) public onlyOwner {\n    require(_pendingRenter != address(0));\n    rentalPrice = price;\n    MachineRental(this, owner, _pendingRenter, startTime, endTime, price);\n    pendingRenter = _pendingRenter;\n  }\n\n  /**\n   * @dev Allows the pendingRenter address to finalize the transfer and provide a token contract, with the cash to hold\n   */\n  function claimRental(ERC20Basic _token) onlyPendingRenter public {\n    require(rentalPrice <= _token.balanceOf(this));\n    token = _token;\n    renter = pendingRenter;\n    pendingRenter = address(0);\n    RentalClaimed(this, renter, now);\n  }\n\n  /**\n   * @dev Allows the renter address to return the machine, and transfer the cash from the held contract, to the machine owner\n   */\n  function returnMachine() onlyRenter public {\n    uint256 amount = token.balanceOf(this);\n    require(rentalPrice <= amount);\n    token.safeTransfer(owner, amount);\n    MachineReturned(this, renter, now);\n  }\n\n  /**\n   * @dev Allows the owner address to confirm the return of the machine\n   */\n  function confirmReturn() onlyOwner public {\n    renter = address(0);\n    rentalPrice = 0;\n    rentalCount++;\n    ReturnConfirmed(this, owner, now);\n  }\n}\n",
  "sourcePath": "/home/spoon/WebstormProjects/blockchain-IoT-core/contracts/Machine.sol",
  "compiler": {
    "name": "solc",
    "version": "0.4.19+commit.c4cbbb05.Emscripten.clang"
  },
  "schemaVersion": "2.0.0",
  "updatedAt": "2018-03-20T18:39:31.023Z"
}