{
  "contractName": "StakeObjects",
  "abi": [
    {
      "constant": true,
      "inputs": [],
      "name": "decimal",
      "outputs": [
        {
          "name": "",
          "type": "uint256"
        }
      ],
      "payable": false,
      "stateMutability": "view",
      "type": "function"
    },
    {
      "constant": true,
      "inputs": [
        {
          "name": "",
          "type": "address"
        }
      ],
      "name": "assets",
      "outputs": [
        {
          "name": "beneficiary",
          "type": "address"
        },
        {
          "name": "isValue",
          "type": "bool"
        },
        {
          "name": "price",
          "type": "uint256"
        },
        {
          "name": "stakesCount",
          "type": "uint256"
        },
        {
          "name": "stakesLeft",
          "type": "uint256"
        },
        {
          "name": "stakePrice",
          "type": "uint256"
        }
      ],
      "payable": false,
      "stateMutability": "view",
      "type": "function"
    },
    {
      "inputs": [],
      "payable": false,
      "stateMutability": "nonpayable",
      "type": "constructor"
    },
    {
      "anonymous": false,
      "inputs": [
        {
          "indexed": false,
          "name": "owner",
          "type": "address"
        },
        {
          "indexed": false,
          "name": "price",
          "type": "uint256"
        },
        {
          "indexed": false,
          "name": "decimal",
          "type": "uint256"
        },
        {
          "indexed": false,
          "name": "stakePrice",
          "type": "uint256"
        }
      ],
      "name": "CreateAssetEvent",
      "type": "event"
    },
    {
      "anonymous": false,
      "inputs": [
        {
          "indexed": false,
          "name": "funder",
          "type": "address"
        },
        {
          "indexed": false,
          "name": "cost",
          "type": "uint256"
        },
        {
          "indexed": false,
          "name": "stakesTotal",
          "type": "uint256"
        }
      ],
      "name": "BuyStakesEvent",
      "type": "event"
    },
    {
      "anonymous": false,
      "inputs": [
        {
          "indexed": false,
          "name": "asset",
          "type": "address"
        },
        {
          "indexed": false,
          "name": "funder",
          "type": "address"
        },
        {
          "indexed": false,
          "name": "stakes",
          "type": "uint256"
        }
      ],
      "name": "CheckFunderAccountEvent",
      "type": "event"
    },
    {
      "anonymous": false,
      "inputs": [],
      "name": "SellStakesEvent",
      "type": "event"
    },
    {
      "constant": false,
      "inputs": [
        {
          "name": "owner",
          "type": "address"
        },
        {
          "name": "price",
          "type": "uint256"
        }
      ],
      "name": "createAsset",
      "outputs": [],
      "payable": false,
      "stateMutability": "nonpayable",
      "type": "function"
    },
    {
      "constant": false,
      "inputs": [
        {
          "name": "asset",
          "type": "address"
        },
        {
          "name": "funder",
          "type": "address"
        }
      ],
      "name": "buyStakes",
      "outputs": [],
      "payable": true,
      "stateMutability": "payable",
      "type": "function"
    },
    {
      "constant": true,
      "inputs": [
        {
          "name": "asset",
          "type": "address"
        },
        {
          "name": "funder",
          "type": "address"
        }
      ],
      "name": "checkFunderAccount",
      "outputs": [
        {
          "name": "",
          "type": "uint256"
        }
      ],
      "payable": false,
      "stateMutability": "view",
      "type": "function"
    },
    {
      "constant": false,
      "inputs": [
        {
          "name": "assetAddress",
          "type": "address"
        },
        {
          "name": "buyer",
          "type": "address"
        },
        {
          "name": "stakeAmount",
          "type": "uint256"
        },
        {
          "name": "price",
          "type": "uint256"
        }
      ],
      "name": "sellStakes",
      "outputs": [],
      "payable": false,
      "stateMutability": "nonpayable",
      "type": "function"
    },
    {
      "constant": false,
      "inputs": [
        {
          "name": "assetAddress",
          "type": "address"
        },
        {
          "name": "funderAddress",
          "type": "address"
        }
      ],
      "name": "buyOfferedStakes",
      "outputs": [],
      "payable": true,
      "stateMutability": "payable",
      "type": "function"
    }
  ],
  "bytecode": "0x6060604052341561000f57600080fd5b670de0b6b3a76400006000819055506113708061002d6000396000f300606060405260043610610083576000357c0100000000000000000000000000000000000000000000000000000000900463ffffffff16806316d6be4c146100885780634000601f146100d55780635fe772c61461013f57806376809ce31461018c578063db136b1e146101b5578063f11b8188146101f7578063f840763414610297575b600080fd5b6100d3600480803573ffffffffffffffffffffffffffffffffffffffff1690602001909190803573ffffffffffffffffffffffffffffffffffffffff16906020019091905050610303565b005b34156100e057600080fd5b61013d600480803573ffffffffffffffffffffffffffffffffffffffff1690602001909190803573ffffffffffffffffffffffffffffffffffffffff169060200190919080359060200190919080359060200190919050506107c0565b005b61018a600480803573ffffffffffffffffffffffffffffffffffffffff1690602001909190803573ffffffffffffffffffffffffffffffffffffffff16906020019091905050610b1f565b005b341561019757600080fd5b61019f610f8c565b6040518082815260200191505060405180910390f35b34156101c057600080fd5b6101f5600480803573ffffffffffffffffffffffffffffffffffffffff16906020019091908035906020019091905050610f92565b005b341561020257600080fd5b61022e600480803573ffffffffffffffffffffffffffffffffffffffff169060200190919050506111f3565b604051808773ffffffffffffffffffffffffffffffffffffffff1673ffffffffffffffffffffffffffffffffffffffff16815260200186151515158152602001858152602001848152602001838152602001828152602001965050505050505060405180910390f35b34156102a257600080fd5b6102ed600480803573ffffffffffffffffffffffffffffffffffffffff1690602001909190803573ffffffffffffffffffffffffffffffffffffffff1690602001909190505061125c565b6040518082815260200191505060405180910390f35b6000806000808585600160008373ffffffffffffffffffffffffffffffffffffffff1673ffffffffffffffffffffffffffffffffffffffff16815260200190815260200160002060050160008273ffffffffffffffffffffffffffffffffffffffff1673ffffffffffffffffffffffffffffffffffffffff16815260200190815260200160002060030160003373ffffffffffffffffffffffffffffffffffffffff1673ffffffffffffffffffffffffffffffffffffffff16815260200190815260200160002060000160009054906101000a900473ffffffffffffffffffffffffffffffffffffffff1673ffffffffffffffffffffffffffffffffffffffff163373ffffffffffffffffffffffffffffffffffffffff1614151561042757600080fd5b349550600160008973ffffffffffffffffffffffffffffffffffffffff1673ffffffffffffffffffffffffffffffffffffffff16815260200190815260200160002060050160008873ffffffffffffffffffffffffffffffffffffffff1673ffffffffffffffffffffffffffffffffffffffff16815260200190815260200160002060030160003373ffffffffffffffffffffffffffffffffffffffff1673ffffffffffffffffffffffffffffffffffffffff1681526020019081526020016000209450846001015486101515156104fe57600080fd5b600160008973ffffffffffffffffffffffffffffffffffffffff1673ffffffffffffffffffffffffffffffffffffffff16815260200190815260200160002060050160003373ffffffffffffffffffffffffffffffffffffffff1673ffffffffffffffffffffffffffffffffffffffff16815260200190815260200160002060000160149054906101000a900460ff1615156106d2576080604051908101604052803373ffffffffffffffffffffffffffffffffffffffff168152602001600115158152602001866001015481526020016000815250600160008a73ffffffffffffffffffffffffffffffffffffffff1673ffffffffffffffffffffffffffffffffffffffff16815260200190815260200160002060050160003373ffffffffffffffffffffffffffffffffffffffff1673ffffffffffffffffffffffffffffffffffffffff16815260200190815260200160002060008201518160000160006101000a81548173ffffffffffffffffffffffffffffffffffffffff021916908373ffffffffffffffffffffffffffffffffffffffff16021790555060208201518160000160146101000a81548160ff02191690831515021790555060408201518160010155606082015181600201559050505b600160008973ffffffffffffffffffffffffffffffffffffffff1673ffffffffffffffffffffffffffffffffffffffff16815260200190815260200160002060050160003373ffffffffffffffffffffffffffffffffffffffff1673ffffffffffffffffffffffffffffffffffffffff168152602001908152602001600020935084600201549250600085600201819055508284600201600082825401925050819055508673ffffffffffffffffffffffffffffffffffffffff166108fc879081150290604051600060405180830381858888f1935050505015156107b657600080fd5b5050505050505050565b600084600160008273ffffffffffffffffffffffffffffffffffffffff1673ffffffffffffffffffffffffffffffffffffffff16815260200190815260200160002060050160003373ffffffffffffffffffffffffffffffffffffffff1673ffffffffffffffffffffffffffffffffffffffff16815260200190815260200160002060000160009054906101000a900473ffffffffffffffffffffffffffffffffffffffff1673ffffffffffffffffffffffffffffffffffffffff163373ffffffffffffffffffffffffffffffffffffffff1614151561089f57600080fd5b600160008773ffffffffffffffffffffffffffffffffffffffff1673ffffffffffffffffffffffffffffffffffffffff16815260200190815260200160002060050160003373ffffffffffffffffffffffffffffffffffffffff1673ffffffffffffffffffffffffffffffffffffffff16815260200190815260200160002091508382600201541015151561093357600080fd5b8160030160008673ffffffffffffffffffffffffffffffffffffffff1673ffffffffffffffffffffffffffffffffffffffff16815260200190815260200160002060000160149054906101000a900460ff161515610a87576080604051908101604052808673ffffffffffffffffffffffffffffffffffffffff16815260200160011515815260200184815260200160008152508260030160008773ffffffffffffffffffffffffffffffffffffffff1673ffffffffffffffffffffffffffffffffffffffff16815260200190815260200160002060008201518160000160006101000a81548173ffffffffffffffffffffffffffffffffffffffff021916908373ffffffffffffffffffffffffffffffffffffffff16021790555060208201518160000160146101000a81548160ff02191690831515021790555060408201518160010155606082015181600201559050505b838260020160008282540392505081905550838260030160008773ffffffffffffffffffffffffffffffffffffffff1673ffffffffffffffffffffffffffffffffffffffff168152602001908152602001600020600201600082825401925050819055507fb848853900c9d92e0c1c6c8c68f428a1209d6588f3d5aba10a97d87d075d6f4260405160405180910390a1505050505050565b600080600080349350610b91600160008873ffffffffffffffffffffffffffffffffffffffff1673ffffffffffffffffffffffffffffffffffffffff16815260200190815260200160002060040154610b83600054876112ee90919063ffffffff16565b61132990919063ffffffff16565b925082600160008873ffffffffffffffffffffffffffffffffffffffff1673ffffffffffffffffffffffffffffffffffffffff1681526020019081526020016000206003015410151515610be457600080fd5b7fd941eba92ef013dab9a240d7ca7370c52567fb4b9b03d14b1108a71c5a9e4521858585604051808473ffffffffffffffffffffffffffffffffffffffff1673ffffffffffffffffffffffffffffffffffffffff168152602001838152602001828152602001935050505060405180910390a1600160008773ffffffffffffffffffffffffffffffffffffffff1673ffffffffffffffffffffffffffffffffffffffff16815260200190815260200160002060050160008673ffffffffffffffffffffffffffffffffffffffff1673ffffffffffffffffffffffffffffffffffffffff16815260200190815260200160002060000160149054906101000a900460ff161515610e28576080604051908101604052808673ffffffffffffffffffffffffffffffffffffffff168152602001600115158152602001600081526020016000815250600160008873ffffffffffffffffffffffffffffffffffffffff1673ffffffffffffffffffffffffffffffffffffffff16815260200190815260200160002060050160008773ffffffffffffffffffffffffffffffffffffffff1673ffffffffffffffffffffffffffffffffffffffff16815260200190815260200160002060008201518160000160006101000a81548173ffffffffffffffffffffffffffffffffffffffff021916908373ffffffffffffffffffffffffffffffffffffffff16021790555060208201518160000160146101000a81548160ff02191690831515021790555060408201518160010155606082015181600201559050505b600160008773ffffffffffffffffffffffffffffffffffffffff1673ffffffffffffffffffffffffffffffffffffffff1681526020019081526020016000209150600160008773ffffffffffffffffffffffffffffffffffffffff1673ffffffffffffffffffffffffffffffffffffffff16815260200190815260200160002060050160008673ffffffffffffffffffffffffffffffffffffffff1673ffffffffffffffffffffffffffffffffffffffff16815260200190815260200160002090508282600301600082825403925050819055508281600201600082825401925050819055508381600101600082825401925050819055508160000160009054906101000a900473ffffffffffffffffffffffffffffffffffffffff1673ffffffffffffffffffffffffffffffffffffffff166108fc859081150290604051600060405180830381858888f193505050501515610f8457600080fd5b505050505050565b60005481565b600160008373ffffffffffffffffffffffffffffffffffffffff1673ffffffffffffffffffffffffffffffffffffffff16815260200190815260200160002060000160149054906101000a900460ff1615156111ef5760c0604051908101604052808373ffffffffffffffffffffffffffffffffffffffff168152602001600115158152602001828152602001620f42408152602001620f4240815260200161105b620f424061104d600054866112ee90919063ffffffff16565b61132990919063ffffffff16565b815250600160008473ffffffffffffffffffffffffffffffffffffffff1673ffffffffffffffffffffffffffffffffffffffff16815260200190815260200160002060008201518160000160006101000a81548173ffffffffffffffffffffffffffffffffffffffff021916908373ffffffffffffffffffffffffffffffffffffffff16021790555060208201518160000160146101000a81548160ff02191690831515021790555060408201518160010155606082015181600201556080820151816003015560a082015181600401559050507f660613badff78af2ac9a54018d1be83c2e4c43404e042d8292e535082f6c965a8282600054600160008773ffffffffffffffffffffffffffffffffffffffff1673ffffffffffffffffffffffffffffffffffffffff16815260200190815260200160002060040154604051808573ffffffffffffffffffffffffffffffffffffffff1673ffffffffffffffffffffffffffffffffffffffff16815260200184815260200183815260200182815260200194505050505060405180910390a15b5050565b60016020528060005260406000206000915090508060000160009054906101000a900473ffffffffffffffffffffffffffffffffffffffff16908060000160149054906101000a900460ff16908060010154908060020154908060030154908060040154905086565b600080600160008573ffffffffffffffffffffffffffffffffffffffff1673ffffffffffffffffffffffffffffffffffffffff16815260200190815260200160002060050160008473ffffffffffffffffffffffffffffffffffffffff1673ffffffffffffffffffffffffffffffffffffffff1681526020019081526020016000209050806002015491505092915050565b60008060008414156113035760009150611322565b828402905082848281151561131457fe5b0414151561131e57fe5b8091505b5092915050565b600080828481151561133757fe5b04905080915050929150505600a165627a7a7230582070473fb1a00a1720e579b752af6f6fae4befeda2dd602aa64a9386e1254d9a730029",
  "source": "pragma solidity ^0.4.18;\nimport \"../node_modules/zeppelin-solidity/contracts/token/ERC20/ERC20Basic.sol\";\nimport \"../node_modules/zeppelin-solidity/contracts/token/ERC20/SafeERC20.sol\";\nimport \"../node_modules/zeppelin-solidity/contracts/math/SafeMath.sol\";\n\n\ncontract StakeObjects {\n    using SafeERC20 for ERC20Basic;\n    using SafeMath for uint256;\n    \n    struct Funder {\n        address funder;\n        bool isValue;\n        uint256 cost;\n        uint256 stakesTotal;\n        mapping (address => Funder) buyers;\n    }\n    \n    struct Asset {\n        address beneficiary;\n        bool isValue;\n        uint256 price;\n        uint256 stakesCount;\n        uint256 stakesLeft;\n        uint256 stakePrice;\n        mapping (address => Funder) funders;\n    }\n    \n    uint256 public decimal;\n    mapping(address => Asset) public assets;\n\n    event CreateAssetEvent(address owner, uint256 price, uint256 decimal, uint256 stakePrice);\n    event BuyStakesEvent(address funder, uint256 cost, uint256 stakesTotal);\n    event CheckFunderAccountEvent(address asset, address funder, uint256 stakes);\n    event SellStakesEvent();\n\n    function StakeObjects() public {\n        decimal = 10**18;\n    }\n\n    function createAsset(address owner, uint256 price) public {\n        if (!assets[owner].isValue) {\n            assets[owner] = Asset({\n                beneficiary: owner,\n                isValue: true,\n                price: price,\n                stakesCount: 1000000,\n                stakesLeft: 1000000,\n                stakePrice: price.mul(decimal).div(1000000)\n            });\n            CreateAssetEvent(owner, price, decimal, assets[owner].stakePrice);\n        }\n    }\n\n    function buyStakes(address asset, address funder) public payable {\n        // check if there is enough stakes\n        uint256 balance = msg.value;\n        uint256 stakes = balance.mul(decimal).div(assets[asset].stakePrice);\n        require(assets[asset].stakesLeft >= stakes);\n\n        BuyStakesEvent(funder, balance, stakes);\n        // check if funder already listed\n        if (!assets[asset].funders[funder].isValue) {\n            assets[asset].funders[funder] = Funder(funder, true, 0, 0);\n        }\n\n        Asset storage assetAccount = assets[asset];\n        Funder storage fundersAccount = assets[asset].funders[funder];\n        assetAccount.stakesLeft -= stakes;\n        fundersAccount.stakesTotal += stakes;\n        fundersAccount.cost += balance;\n\n        // send money to beneficiary\n        // token.safeTransfer(assetAccount.beneficiary, balance);\n        assetAccount.beneficiary.transfer(balance);\n    }\n\n    function checkFunderAccount(address asset, address funder) public constant returns(uint256) {\n        Funder storage funderAccount = assets[asset].funders[funder];\n        return funderAccount.stakesTotal;\n        // CheckFunderAccountEvent(asset, funder, funderAccount.stakesTotal);\n    }\n\n    modifier onlyFunder(address assetAddress) {\n        require(msg.sender == assets[assetAddress].funders[msg.sender].funder);\n        _;\n    }\n\n    function sellStakes(address assetAddress, address buyer, uint256 stakeAmount, uint256 price) \n    public onlyFunder(assetAddress) {\n        Funder storage funderAccount = assets[assetAddress].funders[msg.sender];\n        require(funderAccount.stakesTotal >= stakeAmount);\n        if (!funderAccount.buyers[buyer].isValue) {\n            funderAccount.buyers[buyer] = Funder(buyer, true, price, 0);\n        }\n        funderAccount.stakesTotal -= stakeAmount;\n        funderAccount.buyers[buyer].stakesTotal += stakeAmount;\n        SellStakesEvent();\n    }\n\n    modifier onlyNewFunder(address assetAddress, address funderAddress) {\n        require(msg.sender == assets[assetAddress].funders[funderAddress].buyers[msg.sender].funder);\n        _;\n    }\n\n    function buyOfferedStakes(address assetAddress, address funderAddress)\n    public onlyNewFunder(assetAddress, funderAddress) payable {\n        // uint256 balance = token.balanceOf(this);\n        uint256 balance = msg.value;\n        Funder storage buyerAccount = assets[assetAddress].funders[funderAddress].buyers[msg.sender];\n        require(balance >= buyerAccount.cost);\n        if (!assets[assetAddress].funders[msg.sender].isValue) {\n            assets[assetAddress].funders[msg.sender] = Funder(msg.sender, true, buyerAccount.cost, 0);\n        }\n        Funder storage newFunderAccount = assets[assetAddress].funders[msg.sender];\n        uint stakes = buyerAccount.stakesTotal;\n        buyerAccount.stakesTotal = 0;\n        newFunderAccount.stakesTotal += stakes;\n        // token.safeTransfer(funderAddress, balance);\n        funderAddress.transfer(balance);\n    }\n}\n",
  "sourcePath": "/home/spoon/WebstormProjects/blockchain-IoT-core/contracts/StakeObjects.sol",
  "compiler": {
    "name": "solc",
    "version": "0.4.19+commit.c4cbbb05.Emscripten.clang"
  },
  "schemaVersion": "2.0.0",
  "updatedAt": "2018-03-21T15:50:33.539Z"
}